:020000040800F2
:1000000010090020890100082F210008A31B000807
:100010002D21000873030008092B000800000000D0
:10002000000000000000000000000000C1230008E4
:10003000C303000800000000312100085524000817
:10004000A3010008A3010008A3010008A301000800
:10005000A3010008A3010008A3010008A3010008F0
:10006000A3010008A3010008A3010008750300080C
:10007000810300088D030008A3010008A301000804
:10008000A3010008A3010008A3010008A3010008C0
:10009000A3010008A3010008A3010008A3010008B0
:1000A000A3010008A3010008A3010008A3010008A0
:1000B000A3010008A3010008A3010008A301000890
:1000C000A3010008A3010008A3010008A301000880
:1000D000A3010008A3010008A3010008E52A000805
:1000E000A3010008A3010008A301000800F002F822
:1000F00000F03AF80AA090E8000C82448344AAF188
:100100000107DA4501D100F02FF8AFF2090EBAE885
:100110000F0013F0010F18BFFB1A43F0010318473B
:10012000DC360000FC360000103A24BF78C878C1E5
:10013000FAD8520724BF30C830C144BF04680C60ED
:10014000704700000023002400250026103A28BF35
:1001500078C1FBD8520728BF30C148BF0B60704739
:100160001FB51FBD10B510BD00F09EF81146FFF77A
:10017000F7FF03F009F800F0BCF803B4FFF7F2FF53
:1001800003BC00F0C3F80000094880470948004755
:10019000FEE7FEE7FEE7FEE7FEE7FEE7FEE7FEE737
:1001A000FEE7FEE704480549054A064B7047000094
:1001B000D1240008ED0000081003002010090020E1
:1001C000100500201005002040EA0103024630B56A
:1001D0009B0710D14FF0013400E008C208C91D1B75
:1001E0009D4315EAC41FF8D013F0FF0102F8011B6C
:1001F0000DD01B0AF8E711F8013B002B02F8013B78
:1002000005D011F8013B002B02F8013BF3D130BDC2
:100210004FF000020429C0F0128010F0030C00F02F
:100220001B80CCF1040CBCF1020F18BF00F8012BAD
:10023000A8BF20F8022BA1EB0C0100F00DB85FEA7B
:10024000C17C24BF00F8012B00F8012B48BF00F847
:10025000012B70474FF0000200B5134694469646B6
:10026000203922BFA0E80C50A0E80C50B1F12001C9
:10027000BFF4F7AF090728BFA0E80C5048BF0CC077
:100280005DF804EB890028BF40F8042B08BF7047D5
:1002900048BF20F8022B11F0804F18BF00F8012B47
:1002A0007047704770477047754600F02BF8AE46B0
:1002B00005006946534620F00700854618B020B572
:1002C000FFF770FFBDE820404FF000064FF0000739
:1002D0004FF000084FF0000B21F00701AC46ACE8EE
:1002E000C009ACE8C009ACE8C009ACE8C0098D465B
:1002F000704710B50446AFF300802046BDE81040BB
:10030000FFF73BBF00487047AC02002001491820AE
:10031000ABBEFEE7260002007047000070B5044641
:1003200000688168C943C90717D1816821F00101BC
:10033000816000F02FFC05460AE000BF00F02AFCB7
:10034000401B022804D920688068C043C00706D03B
:1003500020688068C043C007F0D0002070BDA06A4C
:1003600040F01000A062E06A40F00100E06201206D
:1003700070BDFEE7014800F007BA0000D40000207D
:10038000014800F001BA000034020020014800F0EA
:10039000FBB90000F001002030B590F84050012476
:1003A000AC40C56B6C60046863604368102B0368E5
:1003B00003D099600068C26030BD9A600068C16077
:1003C00030BD704700B502464FF47A7302E018461C
:1003D00000F003F8521EFAD200BD00EBC000C100CD
:1003E0004FF0E02041610021816105210161016937
:1003F000C903FCD504210161704772B6FEE7000015
:10040000F8B50024009490F824202546012A12D043
:10041000012280F824204A681F23072A0DD206688B
:10042000776B521E02EB820293409F430B6893400E
:100430001F43776319E00220F8BD06680D2A0AD22F
:10044000376BD21F02EB820293409F430B689340AD
:100450001F43376309E0F76A0D3A02EB82029340CB
:100460009F430B6893401F43F7620A68072306689F
:100470000A2A0AD3F7680A3A02EB420293409F43E2
:100480008B6893401F43F76008E0376902EB420234
:1004900093409F438B6893401F4337610A68102A3B
:1004A00001D0112A20D1124B02689A4217D19368C9
:1004B0001B0219D4936843F4000393600968102960
:1004C00012D10C490C4A0968B1FBF2F101EB810130
:1004D000490000E0491E00910029FBD104E0816A37
:1004E00041F020018162012480F824502046F8BDAB
:1004F000002401400C00002040420F002DE9F04193
:100500004FF0000704003D467ED0A06A002628B9BF
:10051000E66284F82460204600F07EF82046FFF76B
:10052000FDFEA16AC90600D420B1A06A40F0100007
:10053000A06269E0A16A21F4885141F00201A16240
:100540006268E169237B0A4347EA43010A43A168E1
:100550004FF48077B94209D0012907D05FF000013C
:1005600094F814C0BCF1010F02D00AE03946F7E755
:10057000F3B1A36A43F02003A362E36A43F00103EB
:10058000E3622368D3F804C02CF4694C4CEA010CF4
:10059000C3F804C021688B68DFF870C003EA0C035D
:1005A00013438B60A168B9420BD0012909D00CE03C
:1005B000DFF85CC0A3690CEB43330B4343F40061E9
:1005C000DFE7218A0D05A5F580152168CB6A23F4A4
:1005D00070032B43CB62216889680E4B194091420E
:1005E00008D1E662A16A21F0020141F00101A16295
:1005F000BDE8F081A06A20F0020040F01000A06287
:10060000E06A40F00100E0620120F1E7FDF7E1FF60
:1006100000E0FFFFFE0E1FFF70B586B00025064606
:10062000009501950295039500681A4988422ED1DC
:100630001949886940F400708861886900F4007085
:100640000490886940F0040088618869694600F078
:100650000400049006200090032001900F4800F051
:10066000A3F9104C0E48C4E900058020C4E90250EB
:1006700040002061800060612020C4E9060520461A
:1006800000F02CF908B1FFF7B8FE3462666206B0DC
:1006900070BD00000024014000100240000801402D
:1006A00008000240D400002010B590F8211000226C
:1006B000022905D00421816380F82020012010BD8B
:1006C00001680B6823F00E030B6001680B6823F0D0
:1006D00001030B6090F84030C46B012101FA03F371
:1006E000636080F8211080F82020104610BD0000C3
:1006F00010B590F821100024022903D00421816351
:1007000001243DE001680A6822F00E020A600168D7
:100710000A6822F001020A601A4A0168914201D176
:10072000012121E0174A1432914201D110211BE02E
:10073000144A2832914201D1891515E0114A3C3200
:10074000914201D189140FE00E4A5032914202D1F8
:100750004FF4803108E00B4A6432914202D14FF4E9
:10076000801101E04FF08071064A083A5160012182
:1007700080F82110002180F82010416B01B18847DA
:10078000204610BD080002402DE9F05FC16B0C68E7
:1007900001680B68D0F840C0042202FA0CF2494DFF
:1007A000DFF824A1494E4A4FDFF828B1DFF828E1ED
:1007B00022422CD05A072AD50A68920603D40A6826
:1007C00022F004020A600168A94201D1042219E062
:1007D000514501D1402215E0B14202D14FF480626F
:1007E00010E0B94202D14FF480420BE0594502D1EA
:1007F0004FF4802206E0714502D14FF4800201E0FF
:100800004FF080622F4908394A60C16A3BE04FF0DF
:10081000020808FA0CF818EA040F4FF000094FF02C
:10082000010235D05FEA837832D50B689B0605D488
:100830000B6823F00A030B6080F821200168A942AD
:1008400001D1022219E0514501D1202215E0B14227
:1008500002D14FF4007210E0B94202D14FF40052BD
:100860000BE0594502D14FF4003206E0714502D148
:100870004FF4001201E04FF00072124908394A604B
:1008800080F82090816A00291AD0BDE8F05F0847FF
:10089000082505FA0CF5254212D01B0710D50B6868
:1008A00023F00E030B6090F84010C36B02FA01F1C5
:1008B0005960826380F8212080F82090016BE2E784
:1008C000BDE8F09F080002401C00024030000240DA
:1008D00044000240580002406C00024030B528B38A
:1008E00008C8134914221944B1FBF2F18900C1630D
:1008F00010498163022141771A6843F6F0718A43F7
:10090000D0E900142143D0E902452C432143046976
:100910002143446921438469214311431960002123
:100920004163012242770177084630BD012030BD86
:10093000F8FFFDBF0000024070B5044690F82000AB
:10094000002501280CD0012084F8200094F82160B3
:100950000020012E06D084F820000225284670BD14
:10096000022070BD022684F82160A063206806681A
:1009700026F0010606602046FFF70EFDE06A00281B
:100980002068016802D041F00E0106E021F0040168
:1009900001602068016841F00A0101602068016877
:1009A00041F001010160D9E72DE9F84FDFF8B89176
:1009B0000024A9F1040B23460F2709F1040AABF127
:1009C000040EC9E00125A5402A40AA427DD1674E08
:1009D000D1F804C0ACEB0608B44532D014DCBCF14D
:1009E000030F3AD009DCBCF1000F2AD0BCF1010F93
:1009F0001CD0BCF1020F31D11DE0BCF1110F17D09A
:100A0000BCF1120F2AD119E0B8F5881F19D006DC05
:100A1000B8F5803F15D0B8F5801F1FD111E0B8F5AB
:100A2000001F0ED0B8F5041F18D10AE0CB6815E0FE
:100A3000CB681B1D12E0CB6808330FE0CB680C338A
:100A40000CE08B682BB1012B4FF0080303D04561FC
:100A500004E0042302E0056100E00023FF2A01D83E
:100A6000064601E000F104064FEA840501D9A5F12C
:100A70002005D6F8008007FA05FC28EA0C0803FADE
:100A800005F548EA0508C6F800804D68ED0062D516
:100A9000374DAE6946F00106AE61AD6924F003063C
:100AA00005F001050095334D06EB050CDCF8085008
:100AB000A607360F07FA06F825EA0805DFF8B8801A
:100AC000404503D14FF0000817E044E0DFF8AC8068
:100AD000404502D14FF001080FE0DFF8A480404507
:100AE00002D14FF0020808E0DFF89880404502D1BB
:100AF0004FF0030801E04FF0040808FA06F848EA4E
:100B00000508CCF808804D68D9F80060ED024D4624
:100B100001D5164300E096432E604D68DAF8006078
:100B2000AD02554601D5164300E096432E604D6850
:100B3000DBF80060AD035D4601D5164300E0964347
:100B40002E604D68DEF80060ED03754601D5164352
:100B500000E096432E60641C0D682A46E5407FF451
:100B600031AFBDE8F88F000008040140000011100B
:100B7000001002400000014000080140000C01404C
:100B800000100140001401400AB1016170470904DE
:100B9000FBE700000148806870470000000000206B
:100BA000024881680278114481607047000000208B
:100BB000074810B5016841F010010160032000F002
:100BC00075F80F2000F006F800F024F8002010BDA2
:100BD0000020024070B50D4D04464FF47A7128781C
:100BE000B1FBF0F00A490968B1FBF0F000F052FBEC
:100BF00048B9102C07D200222146501E00F036F8CA
:100C000000206C6070BD012070BD0000000000205D
:100C10000C0000200C4808B5816941F00101816198
:100C2000816901F001010091C16941F08051C16108
:100C3000C06900F0805000900448416821F0E061F4
:100C400041F00071416008BD001002400000014009
:100C5000002809DB00F01F020121914040098000BB
:100C600000F1E020C0F8001170470000F0B40E4B16
:100C70001B680C46C3F30223C3F10705042D00D9FA
:100C80000425191D072901D2002300E0DB1E0126DF
:100C900006FA05F1491E214099409E40761E1640F5
:100CA0003143F0BC01F031BF0CED00E0064900F02B
:100CB000070208684FF6FF03184040EA0220034A83
:100CC00010430860704700000CED00E00000FA05DA
:100CD0002DE9F84305460078354CC00754D0E0694B
:100CE0000026C00008D4E06940F08050E061E0696F
:100CF000012600F0805000902E480168C90512D4EA
:100D00000168804641F480710160FFF743FF0746A8
:100D100005E000BFFFF73EFFC01B642823D8D8F8CA
:100D20000000C005F6D5206A10F4407021D0A988D3
:100D300001F4407181421CD0206A1F49012220F435
:100D400040700A6000220A602062C00711D0FFF7DD
:100D500021FF074641F2883808E000BFFFF71AFF7D
:100D6000C11B414502D90320BDE8F883206A8007F2
:100D7000F4D5206A696820F44070084320621EB1EF
:100D8000E06920F08050E0612878800705D5606830
:100D9000A96820F44040084360602878C00605D563
:100DA0006068E96820F48000084360600020DBE7A9
:100DB0000010024000700040400442422DE9F0471C
:100DC0000F46050061D0434E306800F00700B8427E
:100DD00009D2306820F0070038433060306800F0F6
:100DE0000700B84251D128683B4C810712D5400713
:100DF00003D5606840F4E06060602878000703D5A0
:100E0000606840F4605060606068A96820F0F0009D
:100E1000084360602878C00728D06868012810D08F
:100E20002168022810D0890700292EDA616821F094
:100E3000030101436160FFF7ADFE804641F288394E
:100E40000DE021688903EFE78901EDE7FFF7A2FED6
:100E5000A0EB0801494502D90320BDE8F08760688E
:100E6000696800F00C00B0EB810FEFD1306800F042
:100E70000700B8420BD9306820F0070038433060D3
:100E8000306800F00700B84201D00120E5E728787B
:100E9000400705D56068E96820F4E06008436060B9
:100EA0002878000706D56068296920F4605040EA78
:100EB000C100606000F038F86168084AC1F30311AE
:100EC000515CC8400649086006480068FFF782FE8A
:100ED0000020C2E70020024000100240E437000872
:100EE0000C000020040000200448054900684968FF
:100EF000044AC1F30221515CC84070470C00002035
:100F000000100240F43700080448054900684968A9
:100F1000044AC1F3C221515CC84070470C00002054
:100F200000100240F43700080E4A51680E4801F0E4
:100F30000C03042B11D0082B0FD10C48C1F38343B1
:100F4000C903C05C0AD55168084AC1F34041921EEA
:100F5000515C054A5043B0FBF1F0704704494843E7
:100F6000704700000010024000127A00D4370008D9
:100F700000093D002DE9F84F040070D02078C04DE5
:100F8000C00749D06868C0F38100012807D06868AD
:100F9000C0F38100022809D16868C00306D528681B
:100FA000800339D560680028E7D035E06068B0F587
:100FB000803F0BD010B1B0F5A02F11D0286820F4DD
:100FC00080302860286820F4802002E0286840F4FF
:100FD00080302860606890B1FFF7DCFD06460AE0CB
:100FE000286840F480202860F0E700BFFFF7D2FDBA
:100FF000801B642873D828688003F7D50CE0FFF7BE
:10100000C9FD064605E000BFFFF7C4FD801B64284C
:10101000F0D828688003F7D420789A4E80074FF0E4
:1010200001094FF0000839D5686810F00C0F07D09F
:101030006868C0F38100022809D16868C00306D43B
:101040002868800714D52069012808D110E020699C
:10105000B0B1C6F80090FFF79DFD074605E00AE134
:10106000FFF798FDC01B0228C4D828688007F7D571
:101070002868616920F0F80040EAC10028600DE0AE
:10108000C6F80080FFF786FD074604E0FFF782FD03
:10109000C01B022823D828688007F7D420780007CF
:1010A0002CD57948A169D9B1C0F80090FFF772FD3D
:1010B000074604E0FFF76EFDC01B02280FD8686AE0
:1010C0008007F7D571484FF4FA510068B0FBF1F092
:1010D000009000BF0098411E0091FAD20EE080E01F
:1010E000C0F80080FFF756FD074604E0FFF752FD09
:1010F000C01B022875D8686A8007F7D4207840079B
:1011000060D5E8690027C00008D4E86940F0805045
:10111000E861E869012700F0805000905C480168B0
:10112000C90513D40168834641F480710160FFF75B
:1011300031FD824606E000BFFFF72CFDA0EB0A0060
:1011400064284ED8DBF80000C005F5D5E06801281A
:101150000AD008B1052813D0286A20F001002862BF
:10116000286A20F0040002E0286A40F001002862AA
:10117000E06841F2883B98B1FFF70CFD82460BE036
:10118000286A40F004002862EEE700BFFFF702FD86
:10119000A0EB0A0159455AD8286A8007F6D50CE019
:1011A000FFF7F8FC824605E0FFF7F4FCA0EB0A012C
:1011B00059454CD8286A8007F6D41FB1E86920F059
:1011C0008050E861E06988B36968C1F38101022950
:1011D00044D00228C6F8608004D0FFF7DBFC044648
:1011E00038E034E0FFF7D6FC074604E0FFF7D2FC16
:1011F000C01B02282BD828688001F7D4206AB0F5DC
:10120000803F05D16868A16820F400300843686019
:10121000D4E908010843696821F47411084368603F
:10122000C6F86090FFF7B6FC044606E025E000BF74
:10123000FFF7B0FC001B022809D828688001F7D509
:101240001BE000BFFFF7A6FC001B022802D9032009
:10125000BDE8F88F28688001F4D40EE00128F7D0AB
:101260006868226A00F48031914204D1616A00F416
:101270007010884201D00120EAE70020E8E7000072
:101280000010024000004242800442420C00002054
:101290000070004010B5401EB0F1807F01D30120E6
:1012A00010BD4FF0E02460610F21601701F02DFCAC
:1012B0000020A06107202061002010BD10B590F82B
:1012C0003C20012A22D0012280F83C20CA688C6888
:1012D00022F4407222434C6822F4806222430C685C
:1012E00022F4006222430C6922F4805222434C69AA
:1012F00022F400522243C969002322F480420A43A7
:1013000001684A6480F83C30002010BD022010BD06
:1013100070B590F83C20012A26D0012480F83C408A
:10132000022280F83D2003685A689D6822F070060A
:101330000A6832435A600D4B02689A4208D0B2F1F3
:10134000804F05D00A4B9A4202D00A4B9A4204D1F0
:10135000496825F080031943916080F83D400021E1
:1013600080F83C10084670BD022070BD002C014082
:10137000000400400008004010B5040003D094F8B9
:101380003D0010B107E0012010BD002084F83C00B2
:10139000204600F01FF8022084F83D00211D20683F
:1013A00001F098F8012084F8460084F83E0084F8A3
:1013B0003F0084F8400084F8410084F8420084F83B
:1013C000430084F8440084F8450084F83D00002080
:1013D00010BD000008B50C4A01680C48914207D1C5
:1013E000816941F400618161806900F4006009E075
:1013F000B1F1804F07D1C16941F00101C161C069FC
:1014000000F00100009008BD002C014000100240D7
:1014100070B5044690F83C000025012817D001263D
:1014200084F83C60022084F83D002068826822F045
:10143000770222F47F4282600868502838D00DDCA1
:1014400020284FD005DC90B3102811D14AE00220AB
:1014500070BD302846D040280AD13BE060282FD00C
:1014600070280DD0B0F5805F03D0B0F5005F12D0CA
:10147000012584F83D60002084F83C00284670BDBA
:10148000CB68D1E90121206801F067F82068816804
:1014900041F0770109E0CB68D1E90121206801F032
:1014A0005CF82068816841F480418160E1E719E0DF
:1014B000CA684968206801F005F95021206806E0F3
:1014C000CA684968206801F00EF96021206801F0BF
:1014D0004EF8CEE7CA684968206801F0F3F8402169
:1014E0002068F4E7226801461046F0E710B586B0A0
:1014F000002100910191029103911A4C03681A494D
:1015000002221A48A34210D18B6943F004038B6175
:101510008969039201F0040104918115CDE900125B
:101520006946FFF741FA06B010BDB3F1804FFAD11A
:101530008B6943F004038B618969039201F0040114
:1015400004914FF40041CDE900126946FFF72CFAEF
:101550000748416821F4407141F0E06141F4807135
:101560004160E0E7002C014000100240000801400B
:101570000000014070B5044690F83C0000260D467E
:1015800001280FD0012084F83C006AB1042A1DD044
:10159000082A2FD00C2A3FD00126002084F83C00D6
:1015A000304670BD022070BD206800F0E9FF206861
:1015B000816941F0080181612068816921F004019D
:1015C0008161206881692A69114311E0206800F077
:1015D000FFFF2068816941F40061816120688169B1
:1015E00021F480618161206881692A6941EA0221D0
:1015F0008161D2E7206801F017F82068C16941F0E5
:101600000801C1612068C16921F00401C16120683D
:10161000C1692A69114311E0206801F031F820689E
:10162000C16941F40061C1612068C16921F4806130
:10163000C1612068C1692A6941EA0221C161ACE740
:1016400010B5040003D094F83D0010B107E001206C
:1016500010BD002084F83C00204600F01EF8022057
:1016600084F83D00211D206800F034FF012084F83B
:10167000460084F83E0084F83F0084F8400084F877
:10168000410084F8420084F8430084F8440084F860
:10169000450084F83D00002010BD704710B5044699
:1016A000022249B104290ED0082913D094F8410030
:1016B000012816D0012010BD94F83E000128F9D170
:1016C00084F83E200FE094F83F000128F2D184F81E
:1016D0003F2008E094F840000128EBD184F8402036
:1016E00001E084F841200122206800F029FF0F4921
:1016F0002068884203D1426C42F400424264206870
:10170000884208D0B0F1804F05D00949884202D004
:101710000849884204D1816801F00701062903D0F5
:10172000016841F001010160002010BD002C014062
:101730000004004000080040704710B504460068EF
:10174000406994F84110C0F3C010212911D180B133
:101750002068143050E8001F21F0800140E800129A
:10176000002AF5D1A06B08B1FEF79EFF204601F0DC
:10177000A5F82068406994F84210C0F3801022292F
:1017800011D180B12068143050E8001F21F04001D1
:1017900040E80012002AF5D1E06B08B1FEF784FFA3
:1017A000204601F064F8002010BD08B5002180F843
:1017B000401001680A68D24312070AD46FF0080289
:1017C0000A600068016841680091C16841F0100139
:1017D000C16008BDF8B5016804460868CA684B696D
:1017E00010F00F0F4FF0000559D003F0010602F47E
:1017F0009077374365D0C10705D0D10503D5616C1B
:1018000041F001016164410705D5D90703D0616C3E
:1018100041F002016164810705D5D90703D0616CED
:1018200041F004016164010707D502F02001314352
:1018300003D0616C41F008016164616C00293AD009
:10184000800604D5900602D5204601F045F82068B0
:101850004069616CC0F38010090700D460B3204672
:1018600001F005F820684069400621D52068143051
:1018700050E8001F21F0400140E80012002AF5D195
:10188000E06BA8B16D494163E06BFEF731FF0028C2
:1018900011D0E06B416B01B0BDE8F0400847830612
:1018A0000FD593060DD52046BDE8F84001F014B8D9
:1018B0002046FFF77AFFF8BD2046FFF776FF656404
:1018C000F8BD266B2023012E7CD1C6067AD5D6061C
:1018D00078D508684868009048694FF002064006CD
:1018E00040D5E16B086840680004000CE8D0A28D88
:1018F0008242E5D9E085886920282DD020680C3007
:1019000050E8001F21F4807140E80012002AF5D150
:101910002068143050E8001F21F0010140E8001257
:10192000002AF5D12068143050E8001F21F0400152
:1019300040E80012002AF5D184F84230256320687F
:101940000C3050E8001F21F0100140E80012002A7E
:10195000F5D1E06BFEF7A8FE6663A08DE18D401A1D
:1019600081B22AE0A08DE18D401A81B2E08D00287D
:10197000A6D00029A4D022680C3252E8000F20F42F
:10198000907042E80007002FF5D12068143050E82D
:10199000002F22F0010240E80027002FF5D184F843
:1019A0004230256320680C3050E8002F22F01002EE
:1019B00040E80023002BF5D166632046FFF7BCFE0C
:1019C000F8BDFFE705062BD5150629D594F841008B
:1019D0002128F5D1A068B0F5805F01D12069B0B1B0
:1019E000206A411C2162216800784860E08C401E1A
:1019F0000004000CE084E3D12068C16821F080017C
:101A0000C1602068C16841F04001C160D8E7206A28
:101A10000088C0F308004860206A801C2062E5E767
:101A20004006CDD55006CBD5CA68204622F04002EC
:101A3000CA6084F8413000F0B3F8C1E70B27000812
:101A400070B5040004D094F84100002510B106E000
:101A5000012070BD84F84050204600F023F8242077
:101A600084F841002068C16821F40051C16020461B
:101A700000F094FF2068016921F490410161206821
:101A8000416921F02A0141612068C16841F4005197
:101A9000C1606564202084F8410084F842006563D9
:101AA000002070BDF0B585B0002406460094019476
:101AB0000294039400682D49884254D12C48C1698E
:101AC00041F48021C161C16901F4802104918169DF
:101AD00041F0080181618069264D00F00800049002
:101AE0004FF480600090022001900320039069462B
:101AF0002846FEF759FFE814CDE900046946284658
:101B00000294FEF751FF1D4D1B488027C5E90004D4
:101B1000C5E902472C616C61AC612846EC61FEF7B7
:101B2000DDFE08B1FEF769FCF5636E62134D1248E5
:101B30004435143801C5102091C5104845F81049A6
:101B400044306C61AC61EC61FEF7C8FE08B1FEF791
:101B500054FCB5630022114627206E62FFF786F819
:101B60002720FFF775F805B0F0BD000000480040E1
:101B700000100240000C014030000240F001002043
:101B800090F84230202B01D00220704721B11AB1C9
:101B90000023036300F05EBF012070477047704769
:101BA0007047FEE72DE9F0411E4F00244FF480619D
:101BB00038891D4D4E004FF44878C0B100222846A8
:101BC000FEF7E2FF012231462846FEF7DDFFC8207E
:101BD000FEF703FC002231462846FEF7D5FFC82059
:101BE000FEF7FBFB641C4445ECD3002017E0012208
:101BF0002846FEF7C9FF012231462846FEF7C4FFFA
:101C0000C820FEF7EAFB002231462846FEF7BCFF5B
:101C1000C820FEF7E2FB641C4445ECD30120388168
:101C2000BDE8F081100000200008014010B5044616
:101C300001F04AFA01F04EFAC820FEF7C3FB6078C3
:101C4000312807D0322809D033280BD1BDE8104005
:101C500000F01EB8BDE8104000F086B8BDE81040A6
:101C6000FFF7A0BF10BD10B54078312801D0332850
:101C70000DD101F02FFA01F0CBFA6420FEF7A2FBA0
:101C800000F072F8BDE810406420FEF79BBB10BD69
:101C90002DE9F041204F4FF48061002478881F4DDA
:101CA0004E0003281BD201222846FEF76DFF4FF499
:101CB000C878012231462846FEF766FFC820FEF7A5
:101CC0008CFB002231462846FEF75EFFC820FEF757
:101CD00084FB641C4445ECD37888401C19E0002246
:101CE0002846FEF751FF4FF49668012231462846F8
:101CF000FEF74AFFC820FEF770FB00223146284657
:101D0000FEF742FFC820FEF768FB641C4445ECD395
:101D100000207880BDE8F08110000020000801401C
:101D20002DE9F0410F4D0122002491022846FEF7D3
:101D30002BFFEE144FF4C877012231462846FEF7F8
:101D400023FFC820FEF749FB002231462846FEF754
:101D50001BFFC820FEF741FB641CBC42ECD3BDE86E
:101D6000F0810000000801402DE9F041204F4FF4C0
:101D70008061002438881F4D4E0003281BD20022AA
:101D80002846FEF701FF4FF4C87801223146284665
:101D9000FEF7FAFEC820FEF720FB00223146284657
:101DA000FEF7F2FEC820FEF718FB641C4445ECD396
:101DB0003888401C19E001222846FEF7E5FE4FF462
:101DC0009668012231462846FEF7DEFEC820FEF75F
:101DD00004FB002231462846FEF7D6FEC820FEF757
:101DE000FCFA641C4445ECD300203880BDE8F08147
:101DF00010000020000801402DE9F0410F4D0024A3
:101E000022464FF480612846FEF7BEFEEE144FF4E2
:101E1000C877012231462846FEF7B6FEC820FEF7F5
:101E2000DCFA002231462846FEF7AEFEC820FEF757
:101E3000D4FA641CBC42ECD3BDE8F0810008014038
:101E40003EB5002410480094019402940D4984602A
:101E5000016004730475012505614FF4602144603D
:101E6000C161FEF74BFB08B1FEF7C7FA0095CDE95B
:101E7000015469460448FEF7C3FA002801D0FEF772
:101E8000BCFA3EBD00240140A4000020114808B562
:101E9000416941F0010141614069002200F0010007
:101EA000009011460B20FEF7E1FE0B20FEF7D0FE5E
:101EB000002211460C20FEF7D9FE0C20FEF7C8FECA
:101EC000002211460D20FEF7D1FEBDE808400D208E
:101ED000FEF7BEBE001002402DE9F04385B000259C
:101EE00029480095019502950395816941F02001EB
:101EF0008161816901F020010491816941F004014F
:101F00008161816901F004010491816941F0080156
:101F100081618069DFF8748000F00800049000227D
:101F20004FF440614046FEF72FFEDFF86490002238
:101F300060214846FEF728FE4FF480600124022607
:101F40008DE8710069464046FEF72EFDE002CDE9BE
:101F500000040327CDE9024769464046FEF724FD09
:101F600020208DE8710069464846FEF71DFD40209F
:101F7000CDE90004CDE9024769464846FEF714FD65
:101F800005B0BDE8F08300000010024000080140E9
:101F9000000C014010B596B000240F9410941194D9
:101FA000129413941C2108A81494FEF753F92021CD
:101FB0006846FEF74FF92848264901604721C0E9E5
:101FC000011444F61F61C0E9031444618461FFF702
:101FD000D3F908B1FEF711FA4FF480500F900FA912
:101FE0001D48FFF715FA08B1FEF707FA1A48FFF780
:101FF00027FB08B1FEF701FA139413A916481494AD
:10200000FFF786F908B1FEF7F8F96020CDE908047A
:102010000A940B940C940D94002208A90E480E9477
:10202000FFF7A8FA08B1FEF7E8F900944FF4005062
:10203000CDE904400294019403946946064807944C
:10204000FFF73CF908B1FEF7D8F90348FFF74EFA5D
:1020500016B010BD002C01401801002010B58EB044
:1020600000240794089409940A940B941C21684650
:102070000C94FEF7EFF81E484FF0804101604721B5
:10208000C0E9011444F61F61C0E903148461FFF73D
:1020900073F908B1FEF7B1F94FF48050079007A922
:1020A0001348FFF7B5F908B1FEF7A7F91048FFF795
:1020B000C7FA08B1FEF7A1F90B940BA90C480C94D0
:1020C000FFF726F908B1FEF798F96020CDE9000482
:1020D00002940022694606480494FFF74BFA08B1BF
:1020E000FEF78BF90248FFF701FA0EB010BD0000B1
:1020F000600100200C4810B50A4901604FF4E1313D
:102100004160002181600C22C160C0E9041281613C
:10211000C161FFF795FC002803D0BDE81040FEF731
:102120006CB910BD00480040A8010020FEE7FEE7A2
:10213000704700002DE9F0411E4E1F4D00247089AC
:102140004FF44877C8B1002220212846FEF71CFD35
:10215000012240212846FEF717FDC820FEF73DF971
:10216000002240212846FEF70FFDC820FEF735F972
:10217000641CBC42ECD3002018E001222021284638
:10218000FEF702FD012240212846FEF7FDFCC82093
:10219000FEF723F9002240212846FEF7F5FCC8206F
:1021A000FEF71BF9641CBC42ECD301207081BDE832
:1021B000F081000010000020000C014010B5044622
:1021C00000F082FF00F086FFC820FEF7FBF8607881
:1021D000312807D0322809D033280BD1BDE8104070
:1021E00000F01EB8BDE8104000F082B8BDE8104015
:1021F000FFF7A0BF10BD10B54078312801D03328BB
:102200000DD100F061FF01F00FF86420FEF7DAF85D
:1022100000F06EF8BDE810406420FEF7D3B810BDA2
:102220002DE9F041204D0024204EE88803281CD2DF
:10223000012220213046FEF7A7FC4FF4C877012287
:1022400040213046FEF7A0FCC820FEF7C6F8002269
:1022500040213046FEF798FCC820FEF7BEF8641C0B
:10226000BC42ECD3E888401C1AE000222021304612
:10227000FEF78AFC4FF49667012240213046FEF7B4
:1022800083FCC820FEF7A9F8002240213046FEF763
:102290007BFCC820FEF7A1F8641CBC42ECD30020F4
:1022A000E880BDE8F081000010000020000C014033
:1022B00070B50E4D0024012220212846FEF764FC53
:1022C0004FF4C876012240212846FEF75DFCC82065
:1022D000FEF783F8002240212846FEF755FCC8206F
:1022E000FEF77BF8641CB442ECD370BD000C0140D7
:1022F0002DE9F041204D0024204EA88803281CD24F
:10230000002220213046FEF73FFC4FF4C87701221F
:1023100040213046FEF738FCC820FEF75EF8002268
:1023200040213046FEF730FCC820FEF756F8641C0A
:10233000BC42ECD3A888401C1AE001222021304680
:10234000FEF722FC4FF49667012240213046FEF74B
:102350001BFCC820FEF741F8002240213046FEF762
:1023600013FCC820FEF739F8641CBC42ECD30020F3
:10237000A880BDE8F081000010000020000C0140A2
:1023800070B50E4D0024224620212846FEF7FCFBA6
:102390004FF4C876012240212846FEF7F5FBC820FD
:1023A000FEF71BF8002240212846FEF7EDFBC8206F
:1023B000FEF713F8641CB442ECD370BD000C01406E
:1023C00070470000094910B509686FF00100086105
:1023D00007490968086100210448FFF75FF9BDE873
:1023E000104000210248FFF759B9000018010020F1
:1023F0006001002010B5074900F0C8FF064901F050
:10240000A7F8064900F060FF01F082F80449096866
:10241000486310BD000034430000FA440000FA4352
:102420001801002010B5074900F0B0FF064901F07F
:102430008FF8064900F048FF01F06AF8044909687E
:10244000486310BD000034430000FA440000FA4322
:1024500060010020FEF7A4BB30B593B02821684688
:10246000FDF7F8FE14210AA8FDF7F4FE002501206F
:102470000F9510951195010412958DE82300049095
:102480004FF4E010CDE90810022407946846FEF7E7
:1024900071FD08B172B6FEE70AA90F2081E831008C
:1024A0004FF48060CDE90D0502210AA8FEF786FCF5
:1024B00008B172B6FEE74FF4004011900F940FA8D8
:1024C000FEF706FC002801D072B6FEE713B030BD5F
:1024D00070470000F0B50268164B174C174D4FF0CF
:1024E0008047984205D0B84203D0A04201D0A8420C
:1024F00003D122F070064A683243984205D0B842B0
:1025000003D0A04201D0A84203D122F44074CA688B
:1025100022434C6922F08002224302608A68C26230
:102520000A688262984201D109690163012141610F
:10253000F0BD0000002C01400004004000080040F5
:1025400010B501F01F030121046A99408C43046215
:10255000016A9A401143016210BD10B5846842EAD5
:10256000032224F47F440A432243826010BD826820
:1025700022F070020A4342F00701816070470000B8
:1025800030B5036A026A22F001020262426884697D
:1025900024F073050C682C4323F002058B682B4351
:1025A0000A4DA8420BD123F00805CB6822F44072F3
:1025B0002B434D6923F0040315438A692A43426083
:1025C000846149684163036230BD0000002C014012
:1025D00030B5026A036A23F010030362436884691A
:1025E0000D6824F4E64444EA05248D6822F02002B4
:1025F00042EA05120B4DA8420ED1CD6822F08002AE
:1026000042EA05124D6923F4406343EA85038D696C
:1026100022F0400243EA8503436084614968816394
:10262000026230BD002C014030B5036A026A22F418
:10263000807202624268C46923F4007324F0730557
:102640000C682C438D6843EA05230C4DA8420ED13B
:10265000CD6823F4006343EA05234D6922F4405218
:1026600042EA05128D6923F4806342EA0512426052
:10267000C4614968C163036230BD0000002C0140A1
:1026800030B5046A026A22F4805202624268C36969
:102690000D6823F4E64343EA05238D6824F40054CF
:1026A00044EA0534064DA84204D14D6922F4804223
:1026B00042EA85124260C36149680164046230BD28
:1026C000002C014010B5036A046A24F0010404627E
:1026D000846924F0F00444EA021423F00A020A4355
:1026E0008461026210BD10B5036A046A24F010040C
:1026F0000462846923F0A00324F4704444EA0232A3
:1027000043EA01118261016210BD10B5406A0021E7
:10271000C185C184FFF749F810BD70B5446A2068CF
:10272000406994F84110C0F3C0100025212904D15C
:1027300018B1E584204600F0C1F82068406994F89B
:102740004210C0F38010222904D118B1E58520463B
:1027500000F08DF8606C40F0100060642046FFF7D8
:1027600024F870BD10B50146406A096809684FF049
:10277000000289062ED4C28501680C3151E8003F61
:1027800023F4807341E80034002CF5D10168143142
:1027900051E8003F23F0010341E80034002CF5D15B
:1027A0000168143151E8003F23F0400341E8003450
:1027B000002CF5D1202180F84210016B012909D1AC
:1027C00001680C3151E8003F23F0100341E8003468
:1027D000002CF5D14263016B012902D0FFF7DEF92D
:1027E00010BD818DFEF7A8FF10BD10B5406A012114
:1027F0004163016B012902D0FFF7D1F910BD818D32
:102800004908FEF799FF10BDF8B5064600680D4669
:102810001F4601681446C943C9061BD401684068B5
:1028200000903046FEF789FF28684068381AC5B224
:102830000948864203D12046294600F019FD294661
:102840002046FDF7E5FC3A4621463046BDE8F84013
:10285000FFF796B9F8BD0000A801002030B4036866
:10286000DC6844F01004DC6030BCFFF789B9016813
:102870000C3151E8002F22F4907241E80023002B24
:10288000F5D10168143151E8002F22F0010241E82E
:102890000023002BF5D1016B012909D101680C310E
:1028A00051E8002F22F0100241E80023002BF5D15F
:1028B000202180F8421000210163704701680C312B
:1028C00051E8002F22F0C00241E80023002BF5D18F
:1028D000202180F84110704708B590F84210222955
:1028E00001D0022008BD82684FF480539A4201D182
:1028F000016921B1816A9A421BD04AB10AE002689B
:10290000816A5268C2F308020A80816A891C08E061
:10291000026972B10268526802F07F020A70816A2D
:10292000491C8162C18D491E0904090CC18503D06F
:102930001BE002685268F1E70168CA6822F02002D1
:10294000CA600168CA6822F48072CA6001684A6974
:1029500022F001024A61202180F8421000214163E7
:10296000026B012A03D0FFF719F9002008BD0163AB
:1029700001680C3151E8002F22F0100241E80023D9
:10298000002BF5D101680A68D20602D50A684968A9
:102990000091818DFEF7D0FEE7E7000070B5044698
:1029A00000680169E26821F4405111430161216925
:1029B000A0680843616908432168CA6841F20C6352
:1029C0009A430243CA6020684169A26921F44071B8
:1029D000114341611E492068884202D1FEF794FAF2
:1029E00001E0FEF781FA00EBC00101EB0012606824
:1029F00064218000B2FBF0F3B3FBF1F36FF0180633
:102A00007343B2FBF0F5B2FBF0F605EB830532231E
:102A100003EB0515B5FBF1F5B6FBF1F605F0F00596
:102A200005EB0615B2FBF0F6B2FBF0F0B0FBF1F0EF
:102A30006FF01802504306EB800003EB0010B0FB70
:102A4000F1F0216800F00F002844886070BD00009C
:102A50000038014038B58162044682850020134663
:102A60006064222284F84220E56B1B4AAA62E56B6F
:102A70001A4AEA62E56B1A4A2A63E26B50630A4615
:102A80002168E06B091DFDF757FF20680168406869
:102A90000090206948B120680C3050E8001F41F4D4
:102AA000807140E80012002AF5D12068143050E807
:102AB000001F41F0010140E80012002AF5D1206812
:102AC000143050E8001F41F0400140E80012002A95
:102AD000F5D1002038BD000065270008EB2700086D
:102AE0001B27000810B50548FEF774FEBDE810402E
:102AF0003223034A03490148FFF786BEA80100209C
:102B000078020020F0010020FEE70907090E0028E6
:102B100004DB00F1E02080F80014704700F00F00A3
:102B200000F1E02080F8141D704700002DE9F04707
:102B3000074600780326F84C4FF49675552869D15E
:102B400094F90000012837D002286BD0032858D010
:102B500004287DD100F0BEFA2846FDF733FC00F0D2
:102B600057FB2846FDF72EFCFFF75AFB26706078CE
:102B7000401E40B2607000F037FB6070E078401E8D
:102B800040B2E07000F030FBE070A078401E40B230
:102B9000A07000F029FBA0702846FDF713FC00F0A0
:102BA00093FA2846FDF70EFC00F03EFB2846FDF7A1
:102BB00009FCFFF79DFB21E000F08CFA2846FDF7A9
:102BC00001FC00F025FB2846FDF7FCFBFFF7B2FAFD
:102BD00026706078801C40B2607000F005FB607069
:102BE000E078801C40B2E07000F0FEFAE070A0785F
:102BF000801C40B2A07000F0F7FAA0702846FDF7E4
:102C0000E1FB3846FFF712F82846FDF7DBFB3846B4
:102C1000FFF729F838784FF000084FF00A094628E6
:102C200020D06EE000F056FA2846FDF7CBFB00F00E
:102C3000EFFA2846FDF7C6FBFFF75AFB26706078CF
:102C4000401C40B2607000F0CFFA6070E07800E0A5
:102C50008CE0401C40B2E07000F0C6FAE070A07852
:102C6000401C94E794F90500C0B10A287ED100F019
:102C70002BFA2846FDF7A6FB00F0D6FA2846FDF70A
:102C8000A1FBFEF78FFF84F8058084F8049094F987
:102C90000000012807D0032805D012E000F01AFA3E
:102CA00000F012FA21E06078801C40B2607000F001
:102CB0009BFA6070E078801C40B2E07000F094FAFB
:102CC000E07094F90300012801D003280DD1207889
:102CD000801C40B2207000F087FA2070A078801C21
:102CE00040B2A07000F080FAA0702846FDF76AFBA1
:102CF0003846FFF763FA2846FDF764FB3846FFF7CE
:102D00007AFA3878422850D194F90400C0B10A28E0
:102D10002CD100F0D9F92846FDF754FB00F084FAD5
:102D20002846FDF74FFBFEF73DFF84F8048084F84A
:102D3000059094F90000012807D0032805D012E07F
:102D400000F0C8F900F0C0F923E06078801C40B2C0
:102D5000607000F049FA6070E078801C40B2E0706A
:102D600000F042FAE07094F9030000E0A0E00128CE
:102D700001D003280DD12078801C40B2207000F0D3
:102D800033FA2070A078801C40B2A07000F02CFABA
:102D9000A0702846FDF716FB3846FFF70FFA2846C5
:102DA000FDF710FB3846FFF726FA3878442830D074
:102DB0004C287CD052287BD194F90100012878D08E
:102DC000022877D0032876D0042871D100F082F948
:102DD0002846FDF7F7FA00F01BFA2846FDF7F2FA4D
:102DE000FFF71EFA6670E078401E40B2E07000F017
:102DF000FBF9E0702078401E40B2207000F0F4F93A
:102E00002070A078401E40B2A07000F0EDF9A070D4
:102E10002BE094F90200012837D002285ED0032865
:102E20007CD0042844D100F055F92846FDF7CAFAB1
:102E300000F0EEF92846FDF7C5FAFFF7F1F9A670A4
:102E40006078401E40B2607000F0CEF9607020786B
:102E5000401E40B2207000F0C7F92070E078401E9C
:102E600040B2E07000F0C0F9E0702846FDF7AAFA21
:102E700000F02AF92846FDF7A5FA00F0D5F9284612
:102E8000FDF7A0FAFFF734FAF0E000F023F9284646
:102E9000FDF798FA00F0BCF92846FDF793FAFFF722
:102EA00049F9A6702078801C40B2207004E03AE016
:102EB000C1E0B7E0E8E031E000F096F9207060781A
:102EC000801C40B2607000F08FF96070E078801C68
:102ED00040B2E07000F088F9E070C7E000F0FAF866
:102EE0002846FDF76FFA00F093F92846FDF76AFAD5
:102EF000FFF7FEF9A6706078401C40B2607000F0E9
:102F000073F960702078401C40B2207000F06CF9BA
:102F10002070E078401CA3E71C00002000F0DAF8E5
:102F200000F0D2F8A2E094F9030001281AD0022898
:102F300034D00328F2D004287DD100F0CBF8284605
:102F4000FDF740FA00F064F92846FDF73BFAFFF779
:102F500067F9E6706078401E40B2607000F044F996
:102F6000607047E700F0B6F82846FDF72BFA00F04E
:102F70004FF92846FDF726FAFFF7DCF8E6702078CF
:102F8000801C40B2207000F02FF920706078801C07
:102F900040B2607000F028F9607060E000F09AF8CC
:102FA0002846FDF70FFA00F033F92846FDF70AFA34
:102FB000FFF79EF9E6706078401C40B2607000F048
:102FC00013F960702078401C40B2207000F00CF9BA
:102FD0002070A078401C40B2A07000F005F9A070ED
:102FE0002846FDF7EFF900F06FF82846FDF7EAF9FB
:102FF00000F01AF92846FDF7E5F9FFF779F92846B8
:10300000FDF7E0F93846FEF711FE2846FDF7DAF93C
:103010003846FEF728FE2846FDF7D4F9BDE8F0470C
:1030200000F052B800F056F82846FDF7CBF900F052
:10303000EFF8284600E045E0FDF7C4F9FFF77AF81D
:1030400066702078801C40B2207000F0CDF82070AF
:10305000E078801C40B2E07000F0C6F8E070A07824
:10306000801C40B2A07000F0BFF8A0702846FDF7A9
:10307000A9F93846FEF7DAFD2846FDF7A3F93846E8
:10308000BDE8F047FEF7EFBD00F024F82846FDF755
:1030900099F900F0BDF82846FDF794F9FFF728F9F3
:1030A0006670E078401C40B2E07000F09DF8E0707F
:1030B0002078401C40B2207000F096F82070A07874
:1030C000401CA0E6BDE8F0870148FFF793B9000077
:1030D0000000AA420148FFF7A5B900000000AA427B
:1030E00010B5FFF7F7FF4FF496742046FDF76AF925
:1030F00000F08EF82046FDF765F9FFF741F920460C
:10310000FDF760F9FFF7E0FF2046FDF75BF900F0FF
:103110008BF82046FDF756F9FFF7CAF82046FDF771
:1031200051F9FEF7FDFD2046FDF74CF9FFF7D2FF00
:103130002046FDF747F900F06BF82046FDF742F90D
:10314000FEF75AFE2046FDF73DF9FFF7BDFF20468A
:10315000FDF738F900F06EF8BDE8104000F05EB8F9
:1031600010B5044606E02046FFF7E0FCA11C20460F
:10317000FDF72AF820780028F5D100F04FF8BDE8D7
:10318000104000F057B80000FDF712FDFFF764F99A
:10319000FEF7A2FEFEF77AFEFEF760FFFEF750FE96
:1031A000FEF7F8FEFEF7A6FFFFF70CF900F048F86F
:1031B00032220A490A48FFF751FB0A4D002605F161
:1031C0004004287810B10748FFF7CAFF207800288C
:1031D000F7D0FFF785FF2670F3E7000078020020A4
:1031E000A80100202400002001280BD0022809D0CB
:1031F000032807D0042805D028B1052805D00628C3
:1032000000D1022070470420704701207047000061
:103210000148FFF7EFB80000000025430148FFF721
:10322000E9B800000000EA420148FFF7FBB80000DF
:10323000000025430148FFF7F5B800000000EA420E
:1032400010B5FFF7EBFFC820FDF7BCF8FFF7F2FF62
:10325000C820FDF7B7F8FFF737FFC820FDF7B2F831
:10326000FFF738FFBDE81040C820FDF7ABB80000FD
:1032700070B502784318491EAA2A0ED113F8012C02
:10328000552A1CD101220E4C05E0855CA618521C63
:1032900006F8015CD2B28A42F7DB0278AB2A0ED183
:1032A00013F8012C562A0AD10122064B05E0845C52
:1032B0009D18521C05F8014CD2B28A42F7DB70BD52
:1032C000240000206400002090EA010F48BF81F034
:1032D000004100F11082421A3CBF801A89184FEA5F
:1032E000D0524FF07F4C1CEA410FA2EBD15318BFD4
:1032F0009CEA026F00F03B804FF0004C4CEA00204B
:103300004CEA012121FA03FC10EB0C0C1ED202F155
:10331000FF325FEA1C2040EBC25038BF70471CF000
:103320007F0F4FEA400C18BFBCF17F4F38BF70478A
:10333000C3F12003994008BF20F00100BCF17F4F8A
:1033400038BF7047A0F1C04000F0C9B94FEA3C0057
:10335000000A40EBC25028BF1CF0FF0F4FEA400CA0
:10336000E6D018BFBCF17F4F38BF7047EAE79CEA50
:10337000026F05D010EA5C0F08BF00F000407047F4
:1033800010B500F066F900BF64FBBE3E4FF47F0C41
:103390001CEAD0121EBF1CEAD11392EA0C0F93EA6A
:1033A0000C0F00F0858090EA010F48BF42F4807254
:1033B00040F4000C41F400002CF07F4120F07F40ED
:1033C00000B58142A2EB03020FF2081CACEB504E99
:1033D000C0F100009EF800E04FEA4E0E00FB0EFC2C
:1033E00038BF49004FEA2C1C02F5FA020CFB0EF321
:1033F0004FEACE1E4FEA112C4FEAC1210EEB635E5D
:1034000042EB22420EFB0CFC4FEA1C5300FB031163
:103410004FEA112C4FEA01310EFB0CFC4FEADC4C59
:1034200000FB0C11C14228BF09184CEB03335DF8B7
:1034300004EB10EB410143EBC250B2F57C0F38BFF7
:10344000704729D512F0F00F1CBF00F1C04000F00A
:1034500000407047008182838485868788898B8CB1
:103460008D8E8F919293959697999A9C9D9FA0A2ED
:10347000A3A5A7A8AAACAEB0B2B3B5B7B9BCBEC03D
:10348000C2C5C7C9CCCED1D4D7D9DCDFE2E6E9ECDE
:10349000F0F3F7FAFE0000004FEA400C0CF1807CDC
:1034A000BCF17E4F28BF7047B0F1C04000F017B9A3
:1034B00090EA010F0CEAD11348BF42F480726245D2
:1034C00038BF634507D213F47F0F16D080EA01009E
:1034D00000F00040704710B500F0BBF8097EFC3EDC
:1034E00000F005B880EA010000F00040704780EA73
:1034F000010000F0004000F0F2B812F47F0F04BFAA
:103500000248704780EA010000F0E9B80000C07F7F
:10351000C10DD1F19E0206DB4FEA002343F00043C8
:1035200023FA02F07047004207D54FEA4001B1F19B
:10353000FE4F02D24FF00000704710B500F089F83E
:1035400049922480002070476FEA200070470000F5
:103550004FF47F0C1CEAD0121EBF1CEAD11392EA72
:103560000C0F93EA0C0F00F0478090EA010F48BF60
:1035700042F480724FF0004C4CEA00204CEA0121EA
:1035800002EB0302A0FB0113A2F50002002918BF01
:1035900043F001035B0028BF4FEA330342EB2242B2
:1035A0005FEA132C4CEBC2502EBFBCEB436FB2F55D
:1035B0007C0F70474FEA036CBCF1004F08BF20F04E
:1035C0000100B2F57C0F38BF70470BD582F0FF02C7
:1035D00012F5803FC8BF704700F1C040D8BF00F06F
:1035E0000040704700F5000C5FEA4C0C48BF704784
:1035F000B0F1C04000F073B890EA010F0CEAD113AB
:1036000048BF42F48072624538BF634504D280EA05
:10361000010000F00040704710B500F01AF800BF3C
:103620008900013E00F007B800F009B85FEA410CDC
:103630005FEA1C6C08D080EA010000F050B85FEA35
:10364000400C5FEA1C6CF6D14FF00040A0F5800002
:1036500070470EF1020E2EF0030E5EF8044B24426A
:1036600004D44FEA4102B2F17F4F11D84FEA400330
:10367000B3F17F4F0CD80ED14FEAD07CB2F17F4F1F
:103680000CEB4C0C0CF1020C08BF4CEBD17C04E0B1
:103690004FF0080C01E04FEAD17C0CEB4C0324FA0C
:1036A00003F404F00704B4F1040C06D20EEB840C0E
:1036B000BDE810404CF0010C6047DFE80CF0070853
:1036C00002024FF00040A0F5800010BD0846420005
:1036D00018BFD2F1807288BF00F0004010BDFF21FA
:1036E00041EAD050C005704790EA010F48BF81F011
:1036F00000413FF5F0AD421A04D882F00042A0EB41
:10370000020011444FEAD0524FF07F4C1CEA410FA7
:10371000A2EBD15318BF9CEA026F4AD04FF0004C85
:103720004CEA00204CEA012121FA03FCB0EB0C0C1E
:103730000FD412F0FE0F36D05FEA4C001DD50012F8
:1037400040EBC25038BF70471CF03F0F18BF7047A6
:103750000BE0A2F101025FEA1C2040EBC25038BF2F
:1037600070471CF07F0F18BF7047C3F120039940CA
:1037700014BF401E20F00100704780084FEA12235A
:1037800008BF7047B0FA80FCA2EB0C02CCF1280C09
:1037900060FA0CF093EA122F04BF00EBC25070479E
:1037A0004FEAC3707047130A5FEADC1008BF704726
:1037B000F6E79CEA026F04D010EA5C0F08BF002015
:1037C000704710B5FFF745FF40DFF63E81F000403F
:1037D0007047010202030405060708090A0B0C0DD5
:1037E0000E0F101000000000000000000102030492
:1037F0000607080900000000010203041C38000845
:1038000000000020240000002801000840380008C3
:1038100024000020EC080000440100080100000022
:1038200010000000000000000024F4000000000070
:103830000000000000000000010203040A00000074
:04000005080000ED02
:00000001FF
